{
  "_format": "hh-sol-artifact-1",
  "contractName": "iSai",
  "sourceName": "contracts/iSai.sol",
  "abi": [
    {
      "inputs": [],
      "stateMutability": "nonpayable",
      "type": "constructor"
    },
    {
      "anonymous": false,
      "inputs": [
        {
          "indexed": true,
          "internalType": "address",
          "name": "owner",
          "type": "address"
        },
        {
          "indexed": true,
          "internalType": "address",
          "name": "approved",
          "type": "address"
        },
        {
          "indexed": true,
          "internalType": "uint256",
          "name": "tokenId",
          "type": "uint256"
        }
      ],
      "name": "Approval",
      "type": "event"
    },
    {
      "anonymous": false,
      "inputs": [
        {
          "indexed": true,
          "internalType": "address",
          "name": "owner",
          "type": "address"
        },
        {
          "indexed": true,
          "internalType": "address",
          "name": "operator",
          "type": "address"
        },
        {
          "indexed": false,
          "internalType": "bool",
          "name": "approved",
          "type": "bool"
        }
      ],
      "name": "ApprovalForAll",
      "type": "event"
    },
    {
      "anonymous": false,
      "inputs": [
        {
          "indexed": true,
          "internalType": "address",
          "name": "previousOwner",
          "type": "address"
        },
        {
          "indexed": true,
          "internalType": "address",
          "name": "newOwner",
          "type": "address"
        }
      ],
      "name": "OwnershipTransferred",
      "type": "event"
    },
    {
      "anonymous": false,
      "inputs": [
        {
          "indexed": true,
          "internalType": "address",
          "name": "from",
          "type": "address"
        },
        {
          "indexed": true,
          "internalType": "address",
          "name": "to",
          "type": "address"
        },
        {
          "indexed": true,
          "internalType": "uint256",
          "name": "tokenId",
          "type": "uint256"
        }
      ],
      "name": "Transfer",
      "type": "event"
    },
    {
      "inputs": [
        {
          "internalType": "address",
          "name": "to",
          "type": "address"
        },
        {
          "internalType": "uint256",
          "name": "tokenId",
          "type": "uint256"
        }
      ],
      "name": "approve",
      "outputs": [],
      "stateMutability": "nonpayable",
      "type": "function"
    },
    {
      "inputs": [
        {
          "internalType": "address",
          "name": "owner",
          "type": "address"
        }
      ],
      "name": "balanceOf",
      "outputs": [
        {
          "internalType": "uint256",
          "name": "",
          "type": "uint256"
        }
      ],
      "stateMutability": "view",
      "type": "function"
    },
    {
      "inputs": [
        {
          "internalType": "uint256",
          "name": "tokenId",
          "type": "uint256"
        }
      ],
      "name": "getApproved",
      "outputs": [
        {
          "internalType": "address",
          "name": "",
          "type": "address"
        }
      ],
      "stateMutability": "view",
      "type": "function"
    },
    {
      "inputs": [
        {
          "internalType": "address",
          "name": "",
          "type": "address"
        }
      ],
      "name": "hasMinted",
      "outputs": [
        {
          "internalType": "uint256",
          "name": "",
          "type": "uint256"
        }
      ],
      "stateMutability": "view",
      "type": "function"
    },
    {
      "inputs": [
        {
          "internalType": "address",
          "name": "owner",
          "type": "address"
        },
        {
          "internalType": "address",
          "name": "operator",
          "type": "address"
        }
      ],
      "name": "isApprovedForAll",
      "outputs": [
        {
          "internalType": "bool",
          "name": "",
          "type": "bool"
        }
      ],
      "stateMutability": "view",
      "type": "function"
    },
    {
      "inputs": [
        {
          "internalType": "string",
          "name": "_tokenURI",
          "type": "string"
        }
      ],
      "name": "mintNFT",
      "outputs": [],
      "stateMutability": "nonpayable",
      "type": "function"
    },
    {
      "inputs": [],
      "name": "name",
      "outputs": [
        {
          "internalType": "string",
          "name": "",
          "type": "string"
        }
      ],
      "stateMutability": "view",
      "type": "function"
    },
    {
      "inputs": [],
      "name": "owner",
      "outputs": [
        {
          "internalType": "address",
          "name": "",
          "type": "address"
        }
      ],
      "stateMutability": "view",
      "type": "function"
    },
    {
      "inputs": [
        {
          "internalType": "uint256",
          "name": "tokenId",
          "type": "uint256"
        }
      ],
      "name": "ownerOf",
      "outputs": [
        {
          "internalType": "address",
          "name": "",
          "type": "address"
        }
      ],
      "stateMutability": "view",
      "type": "function"
    },
    {
      "inputs": [
        {
          "internalType": "address",
          "name": "recipient",
          "type": "address"
        },
        {
          "internalType": "uint256",
          "name": "amount",
          "type": "uint256"
        }
      ],
      "name": "payToAddress",
      "outputs": [],
      "stateMutability": "nonpayable",
      "type": "function"
    },
    {
      "inputs": [],
      "name": "renounceOwnership",
      "outputs": [],
      "stateMutability": "nonpayable",
      "type": "function"
    },
    {
      "inputs": [
        {
          "internalType": "address",
          "name": "from",
          "type": "address"
        },
        {
          "internalType": "address",
          "name": "to",
          "type": "address"
        },
        {
          "internalType": "uint256",
          "name": "tokenId",
          "type": "uint256"
        }
      ],
      "name": "safeTransferFrom",
      "outputs": [],
      "stateMutability": "nonpayable",
      "type": "function"
    },
    {
      "inputs": [
        {
          "internalType": "address",
          "name": "from",
          "type": "address"
        },
        {
          "internalType": "address",
          "name": "to",
          "type": "address"
        },
        {
          "internalType": "uint256",
          "name": "tokenId",
          "type": "uint256"
        },
        {
          "internalType": "bytes",
          "name": "_data",
          "type": "bytes"
        }
      ],
      "name": "safeTransferFrom",
      "outputs": [],
      "stateMutability": "nonpayable",
      "type": "function"
    },
    {
      "inputs": [
        {
          "internalType": "address",
          "name": "operator",
          "type": "address"
        },
        {
          "internalType": "bool",
          "name": "approved",
          "type": "bool"
        }
      ],
      "name": "setApprovalForAll",
      "outputs": [],
      "stateMutability": "nonpayable",
      "type": "function"
    },
    {
      "inputs": [
        {
          "internalType": "bytes4",
          "name": "interfaceId",
          "type": "bytes4"
        }
      ],
      "name": "supportsInterface",
      "outputs": [
        {
          "internalType": "bool",
          "name": "",
          "type": "bool"
        }
      ],
      "stateMutability": "view",
      "type": "function"
    },
    {
      "inputs": [],
      "name": "symbol",
      "outputs": [
        {
          "internalType": "string",
          "name": "",
          "type": "string"
        }
      ],
      "stateMutability": "view",
      "type": "function"
    },
    {
      "inputs": [
        {
          "internalType": "uint256",
          "name": "_tokenId",
          "type": "uint256"
        }
      ],
      "name": "tokenURI",
      "outputs": [
        {
          "internalType": "string",
          "name": "",
          "type": "string"
        }
      ],
      "stateMutability": "view",
      "type": "function"
    },
    {
      "inputs": [
        {
          "internalType": "address",
          "name": "from",
          "type": "address"
        },
        {
          "internalType": "address",
          "name": "to",
          "type": "address"
        },
        {
          "internalType": "uint256",
          "name": "tokenId",
          "type": "uint256"
        }
      ],
      "name": "transferFrom",
      "outputs": [],
      "stateMutability": "nonpayable",
      "type": "function"
    },
    {
      "inputs": [
        {
          "internalType": "address",
          "name": "newOwner",
          "type": "address"
        }
      ],
      "name": "transferOwnership",
      "outputs": [],
      "stateMutability": "nonpayable",
      "type": "function"
    }
  ],
  "bytecode": "0x60806040523480156200001157600080fd5b506040518060400160405280600481526020017f69536169000000000000000000000000000000000000000000000000000000008152506040518060400160405280600481526020017f695361690000000000000000000000000000000000000000000000000000000081525081600090816200008f919062000412565b508060019081620000a1919062000412565b505050620000c4620000b8620000ca60201b60201c565b620000d260201b60201c565b620004f9565b600033905090565b6000600660009054906101000a900473ffffffffffffffffffffffffffffffffffffffff16905081600660006101000a81548173ffffffffffffffffffffffffffffffffffffffff021916908373ffffffffffffffffffffffffffffffffffffffff1602179055508173ffffffffffffffffffffffffffffffffffffffff168173ffffffffffffffffffffffffffffffffffffffff167f8be0079c531659141344cd1fd0a4f28419497f9722a3daafe3b4186f6b6457e060405160405180910390a35050565b600081519050919050565b7f4e487b7100000000000000000000000000000000000000000000000000000000600052604160045260246000fd5b7f4e487b7100000000000000000000000000000000000000000000000000000000600052602260045260246000fd5b600060028204905060018216806200021a57607f821691505b60208210810362000230576200022f620001d2565b5b50919050565b60008190508160005260206000209050919050565b60006020601f8301049050919050565b600082821b905092915050565b6000600883026200029a7fffffffffffffffffffffffffffffffffffffffffffffffffffffffffffffffff826200025b565b620002a686836200025b565b95508019841693508086168417925050509392505050565b6000819050919050565b6000819050919050565b6000620002f3620002ed620002e784620002be565b620002c8565b620002be565b9050919050565b6000819050919050565b6200030f83620002d2565b620003276200031e82620002fa565b84845462000268565b825550505050565b600090565b6200033e6200032f565b6200034b81848462000304565b505050565b5b8181101562000373576200036760008262000334565b60018101905062000351565b5050565b601f821115620003c2576200038c8162000236565b62000397846200024b565b81016020851015620003a7578190505b620003bf620003b6856200024b565b83018262000350565b50505b505050565b600082821c905092915050565b6000620003e760001984600802620003c7565b1980831691505092915050565b6000620004028383620003d4565b9150826002028217905092915050565b6200041d8262000198565b67ffffffffffffffff811115620004395762000438620001a3565b5b62000445825462000201565b6200045282828562000377565b600060209050601f8311600181146200048a576000841562000475578287015190505b620004818582620003f4565b865550620004f1565b601f1984166200049a8662000236565b60005b82811015620004c4578489015182556001820191506020850194506020810190506200049d565b86831015620004e45784890151620004e0601f891682620003d4565b8355505b6001600288020188555050505b505050505050565b61245580620005096000396000f3fe608060405234801561001057600080fd5b50600436106101215760003560e01c8063715018a6116100ad578063c6d85ef611610071578063c6d85ef614610306578063c87b56dd14610322578063e985e9c514610352578063f2fde38b14610382578063fb37e8831461039e57610121565b8063715018a6146102885780638da5cb5b1461029257806395d89b41146102b0578063a22cb465146102ce578063b88d4fde146102ea57610121565b806323b872dd116100f457806323b872dd146101c057806338e21cce146101dc57806342842e0e1461020c5780636352211e1461022857806370a082311461025857610121565b806301ffc9a71461012657806306fdde0314610156578063081812fc14610174578063095ea7b3146101a4575b600080fd5b610140600480360381019061013b9190611441565b6103ba565b60405161014d9190611489565b60405180910390f35b61015e61049c565b60405161016b9190611534565b60405180910390f35b61018e6004803603810190610189919061158c565b61052e565b60405161019b91906115fa565b60405180910390f35b6101be60048036038101906101b99190611641565b610574565b005b6101da60048036038101906101d59190611681565b6105af565b005b6101f660048036038101906101f191906116d4565b6105ea565b6040516102039190611710565b60405180910390f35b61022660048036038101906102219190611681565b610602565b005b610242600480360381019061023d919061158c565b61063d565b60405161024f91906115fa565b60405180910390f35b610272600480360381019061026d91906116d4565b6106c3565b60405161027f9190611710565b60405180910390f35b61029061077a565b005b61029a61078e565b6040516102a791906115fa565b60405180910390f35b6102b86107b8565b6040516102c59190611534565b60405180910390f35b6102e860048036038101906102e39190611757565b61084a565b005b61030460048036038101906102ff91906118cc565b610885565b005b610320600480360381019061031b9190611641565b6108c0565b005b61033c6004803603810190610337919061158c565b610977565b6040516103499190611534565b60405180910390f35b61036c6004803603810190610367919061194f565b610aa1565b6040516103799190611489565b60405180910390f35b61039c600480360381019061039791906116d4565b610b35565b005b6103b860048036038101906103b39190611a30565b610bb8565b005b60007f80ac58cd000000000000000000000000000000000000000000000000000000007bffffffffffffffffffffffffffffffffffffffffffffffffffffffff1916827bffffffffffffffffffffffffffffffffffffffffffffffffffffffff1916148061048557507f5b5e139f000000000000000000000000000000000000000000000000000000007bffffffffffffffffffffffffffffffffffffffffffffffffffffffff1916827bffffffffffffffffffffffffffffffffffffffffffffffffffffffff1916145b80610495575061049482610cc1565b5b9050919050565b6060600080546104ab90611aa8565b80601f01602080910402602001604051908101604052809291908181526020018280546104d790611aa8565b80156105245780601f106104f957610100808354040283529160200191610524565b820191906000526020600020905b81548152906001019060200180831161050757829003601f168201915b5050505050905090565b600061053982610d2b565b6004600083815260200190815260200160002060009054906101000a900473ffffffffffffffffffffffffffffffffffffffff169050919050565b6040517f08c379a00000000000000000000000000000000000000000000000000000000081526004016105a690611b25565b60405180910390fd5b6040517f08c379a00000000000000000000000000000000000000000000000000000000081526004016105e190611b25565b60405180910390fd5b600a6020528060005260406000206000915090505481565b6040517f08c379a000000000000000000000000000000000000000000000000000000000815260040161063490611b25565b60405180910390fd5b60008061064983610d76565b9050600073ffffffffffffffffffffffffffffffffffffffff168173ffffffffffffffffffffffffffffffffffffffff16036106ba576040517f08c379a00000000000000000000000000000000000000000000000000000000081526004016106b190611b91565b60405180910390fd5b80915050919050565b60008073ffffffffffffffffffffffffffffffffffffffff168273ffffffffffffffffffffffffffffffffffffffff1603610733576040517f08c379a000000000000000000000000000000000000000000000000000000000815260040161072a90611c23565b60405180910390fd5b600360008373ffffffffffffffffffffffffffffffffffffffff1673ffffffffffffffffffffffffffffffffffffffff168152602001908152602001600020549050919050565b610782610db3565b61078c6000610e31565b565b6000600660009054906101000a900473ffffffffffffffffffffffffffffffffffffffff16905090565b6060600180546107c790611aa8565b80601f01602080910402602001604051908101604052809291908181526020018280546107f390611aa8565b80156108405780601f1061081557610100808354040283529160200191610840565b820191906000526020600020905b81548152906001019060200180831161082357829003601f168201915b5050505050905090565b6040517f08c379a000000000000000000000000000000000000000000000000000000000815260040161087c90611b25565b60405180910390fd5b6040517f08c379a00000000000000000000000000000000000000000000000000000000081526004016108b790611b25565b60405180910390fd5b600081905060008373ffffffffffffffffffffffffffffffffffffffff16826040516108eb90611c74565b60006040518083038185875af1925050503d8060008114610928576040519150601f19603f3d011682016040523d82523d6000602084013e61092d565b606091505b5050905080610971576040517f08c379a000000000000000000000000000000000000000000000000000000000815260040161096890611cd5565b60405180910390fd5b50505050565b606061098282610ef7565b6109c1576040517f08c379a00000000000000000000000000000000000000000000000000000000081526004016109b890611d67565b60405180910390fd5b60006009600084815260200190815260200160002080546109e190611aa8565b9050116109fd5760405180602001604052806000815250610a9a565b600960008381526020019081526020016000208054610a1b90611aa8565b80601f0160208091040260200160405190810160405280929190818152602001828054610a4790611aa8565b8015610a945780601f10610a6957610100808354040283529160200191610a94565b820191906000526020600020905b815481529060010190602001808311610a7757829003601f168201915b50505050505b9050919050565b6000600560008473ffffffffffffffffffffffffffffffffffffffff1673ffffffffffffffffffffffffffffffffffffffff16815260200190815260200160002060008373ffffffffffffffffffffffffffffffffffffffff1673ffffffffffffffffffffffffffffffffffffffff16815260200190815260200160002060009054906101000a900460ff16905092915050565b610b3d610db3565b600073ffffffffffffffffffffffffffffffffffffffff168173ffffffffffffffffffffffffffffffffffffffff1603610bac576040517f08c379a0000000000000000000000000000000000000000000000000000000008152600401610ba390611df9565b60405180910390fd5b610bb581610e31565b50565b6003600a60003373ffffffffffffffffffffffffffffffffffffffff1673ffffffffffffffffffffffffffffffffffffffff1681526020019081526020016000205410610c3a576040517f08c379a0000000000000000000000000000000000000000000000000000000008152600401610c3190611e65565b60405180910390fd5b6001600a60003373ffffffffffffffffffffffffffffffffffffffff1673ffffffffffffffffffffffffffffffffffffffff1681526020019081526020016000206000828254610c8a9190611eb4565b925050819055506000610c9d6008610f38565b9050610ca96008610f46565b610cb33382610f5c565b610cbd8183610f7a565b5050565b60007f01ffc9a7000000000000000000000000000000000000000000000000000000007bffffffffffffffffffffffffffffffffffffffffffffffffffffffff1916827bffffffffffffffffffffffffffffffffffffffffffffffffffffffff1916149050919050565b610d3481610ef7565b610d73576040517f08c379a0000000000000000000000000000000000000000000000000000000008152600401610d6a90611b91565b60405180910390fd5b50565b60006002600083815260200190815260200160002060009054906101000a900473ffffffffffffffffffffffffffffffffffffffff169050919050565b610dbb610f9f565b73ffffffffffffffffffffffffffffffffffffffff16610dd961078e565b73ffffffffffffffffffffffffffffffffffffffff1614610e2f576040517f08c379a0000000000000000000000000000000000000000000000000000000008152600401610e2690611f34565b60405180910390fd5b565b6000600660009054906101000a900473ffffffffffffffffffffffffffffffffffffffff16905081600660006101000a81548173ffffffffffffffffffffffffffffffffffffffff021916908373ffffffffffffffffffffffffffffffffffffffff1602179055508173ffffffffffffffffffffffffffffffffffffffff168173ffffffffffffffffffffffffffffffffffffffff167f8be0079c531659141344cd1fd0a4f28419497f9722a3daafe3b4186f6b6457e060405160405180910390a35050565b60008073ffffffffffffffffffffffffffffffffffffffff16610f1983610d76565b73ffffffffffffffffffffffffffffffffffffffff1614159050919050565b600081600001549050919050565b6001816000016000828254019250508190555050565b610f76828260405180602001604052806000815250610fa7565b5050565b80600960008481526020019081526020016000209081610f9a9190612100565b505050565b600033905090565b610fb18383611002565b610fbe600084848461121f565b610ffd576040517f08c379a0000000000000000000000000000000000000000000000000000000008152600401610ff490612244565b60405180910390fd5b505050565b600073ffffffffffffffffffffffffffffffffffffffff168273ffffffffffffffffffffffffffffffffffffffff1603611071576040517f08c379a0000000000000000000000000000000000000000000000000000000008152600401611068906122b0565b60405180910390fd5b61107a81610ef7565b156110ba576040517f08c379a00000000000000000000000000000000000000000000000000000000081526004016110b19061231c565b60405180910390fd5b6110c86000838360016113a6565b6110d181610ef7565b15611111576040517f08c379a00000000000000000000000000000000000000000000000000000000081526004016111089061231c565b60405180910390fd5b6001600360008473ffffffffffffffffffffffffffffffffffffffff1673ffffffffffffffffffffffffffffffffffffffff16815260200190815260200160002060008282540192505081905550816002600083815260200190815260200160002060006101000a81548173ffffffffffffffffffffffffffffffffffffffff021916908373ffffffffffffffffffffffffffffffffffffffff160217905550808273ffffffffffffffffffffffffffffffffffffffff16600073ffffffffffffffffffffffffffffffffffffffff167fddf252ad1be2c89b69c2b068fc378daa952ba7f163c4a11628f55a4df523b3ef60405160405180910390a461121b6000838360016113ac565b5050565b60006112408473ffffffffffffffffffffffffffffffffffffffff166113b2565b15611399578373ffffffffffffffffffffffffffffffffffffffff1663150b7a02611269610f9f565b8786866040518563ffffffff1660e01b815260040161128b9493929190612391565b6020604051808303816000875af19250505080156112c757506040513d601f19601f820116820180604052508101906112c491906123f2565b60015b611349573d80600081146112f7576040519150601f19603f3d011682016040523d82523d6000602084013e6112fc565b606091505b506000815103611341576040517f08c379a000000000000000000000000000000000000000000000000000000000815260040161133890612244565b60405180910390fd5b805181602001fd5b63150b7a0260e01b7bffffffffffffffffffffffffffffffffffffffffffffffffffffffff1916817bffffffffffffffffffffffffffffffffffffffffffffffffffffffff19161491505061139e565b600190505b949350505050565b50505050565b50505050565b6000808273ffffffffffffffffffffffffffffffffffffffff163b119050919050565b6000604051905090565b600080fd5b600080fd5b60007fffffffff0000000000000000000000000000000000000000000000000000000082169050919050565b61141e816113e9565b811461142957600080fd5b50565b60008135905061143b81611415565b92915050565b600060208284031215611457576114566113df565b5b60006114658482850161142c565b91505092915050565b60008115159050919050565b6114838161146e565b82525050565b600060208201905061149e600083018461147a565b92915050565b600081519050919050565b600082825260208201905092915050565b60005b838110156114de5780820151818401526020810190506114c3565b60008484015250505050565b6000601f19601f8301169050919050565b6000611506826114a4565b61151081856114af565b93506115208185602086016114c0565b611529816114ea565b840191505092915050565b6000602082019050818103600083015261154e81846114fb565b905092915050565b6000819050919050565b61156981611556565b811461157457600080fd5b50565b60008135905061158681611560565b92915050565b6000602082840312156115a2576115a16113df565b5b60006115b084828501611577565b91505092915050565b600073ffffffffffffffffffffffffffffffffffffffff82169050919050565b60006115e4826115b9565b9050919050565b6115f4816115d9565b82525050565b600060208201905061160f60008301846115eb565b92915050565b61161e816115d9565b811461162957600080fd5b50565b60008135905061163b81611615565b92915050565b60008060408385031215611658576116576113df565b5b60006116668582860161162c565b925050602061167785828601611577565b9150509250929050565b60008060006060848603121561169a576116996113df565b5b60006116a88682870161162c565b93505060206116b98682870161162c565b92505060406116ca86828701611577565b9150509250925092565b6000602082840312156116ea576116e96113df565b5b60006116f88482850161162c565b91505092915050565b61170a81611556565b82525050565b60006020820190506117256000830184611701565b92915050565b6117348161146e565b811461173f57600080fd5b50565b6000813590506117518161172b565b92915050565b6000806040838503121561176e5761176d6113df565b5b600061177c8582860161162c565b925050602061178d85828601611742565b9150509250929050565b600080fd5b600080fd5b7f4e487b7100000000000000000000000000000000000000000000000000000000600052604160045260246000fd5b6117d9826114ea565b810181811067ffffffffffffffff821117156117f8576117f76117a1565b5b80604052505050565b600061180b6113d5565b905061181782826117d0565b919050565b600067ffffffffffffffff821115611837576118366117a1565b5b611840826114ea565b9050602081019050919050565b82818337600083830152505050565b600061186f61186a8461181c565b611801565b90508281526020810184848401111561188b5761188a61179c565b5b61189684828561184d565b509392505050565b600082601f8301126118b3576118b2611797565b5b81356118c384826020860161185c565b91505092915050565b600080600080608085870312156118e6576118e56113df565b5b60006118f48782880161162c565b94505060206119058782880161162c565b935050604061191687828801611577565b925050606085013567ffffffffffffffff811115611937576119366113e4565b5b6119438782880161189e565b91505092959194509250565b60008060408385031215611966576119656113df565b5b60006119748582860161162c565b92505060206119858582860161162c565b9150509250929050565b600067ffffffffffffffff8211156119aa576119a96117a1565b5b6119b3826114ea565b9050602081019050919050565b60006119d36119ce8461198f565b611801565b9050828152602081018484840111156119ef576119ee61179c565b5b6119fa84828561184d565b509392505050565b600082601f830112611a1757611a16611797565b5b8135611a278482602086016119c0565b91505092915050565b600060208284031215611a4657611a456113df565b5b600082013567ffffffffffffffff811115611a6457611a636113e4565b5b611a7084828501611a02565b91505092915050565b7f4e487b7100000000000000000000000000000000000000000000000000000000600052602260045260246000fd5b60006002820490506001821680611ac057607f821691505b602082108103611ad357611ad2611a79565b5b50919050565b7f695361693a205472616e73666572732061726520666f7262696464656e000000600082015250565b6000611b0f601d836114af565b9150611b1a82611ad9565b602082019050919050565b60006020820190508181036000830152611b3e81611b02565b9050919050565b7f4552433732313a20696e76616c696420746f6b656e2049440000000000000000600082015250565b6000611b7b6018836114af565b9150611b8682611b45565b602082019050919050565b60006020820190508181036000830152611baa81611b6e565b9050919050565b7f4552433732313a2061646472657373207a65726f206973206e6f74206120766160008201527f6c6964206f776e65720000000000000000000000000000000000000000000000602082015250565b6000611c0d6029836114af565b9150611c1882611bb1565b604082019050919050565b60006020820190508181036000830152611c3c81611c00565b9050919050565b600081905092915050565b50565b6000611c5e600083611c43565b9150611c6982611c4e565b600082019050919050565b6000611c7f82611c51565b9150819050919050565b7f4661696c656420746f2073656e6420616d6f756e740000000000000000000000600082015250565b6000611cbf6015836114af565b9150611cca82611c89565b602082019050919050565b60006020820190508181036000830152611cee81611cb2565b9050919050565b7f4552433732314d657461646174613a2055524920717565727920666f72206e6f60008201527f6e6578697374656e7420746f6b656e0000000000000000000000000000000000602082015250565b6000611d51602f836114af565b9150611d5c82611cf5565b604082019050919050565b60006020820190508181036000830152611d8081611d44565b9050919050565b7f4f776e61626c653a206e6577206f776e657220697320746865207a65726f206160008201527f6464726573730000000000000000000000000000000000000000000000000000602082015250565b6000611de36026836114af565b9150611dee82611d87565b604082019050919050565b60006020820190508181036000830152611e1281611dd6565b9050919050565b7f596f75206861766520616c7265616479206d696e7465642033206e6674730000600082015250565b6000611e4f601e836114af565b9150611e5a82611e19565b602082019050919050565b60006020820190508181036000830152611e7e81611e42565b9050919050565b7f4e487b7100000000000000000000000000000000000000000000000000000000600052601160045260246000fd5b6000611ebf82611556565b9150611eca83611556565b9250828201905080821115611ee257611ee1611e85565b5b92915050565b7f4f776e61626c653a2063616c6c6572206973206e6f7420746865206f776e6572600082015250565b6000611f1e6020836114af565b9150611f2982611ee8565b602082019050919050565b60006020820190508181036000830152611f4d81611f11565b9050919050565b60008190508160005260206000209050919050565b60006020601f8301049050919050565b600082821b905092915050565b600060088302611fb67fffffffffffffffffffffffffffffffffffffffffffffffffffffffffffffffff82611f79565b611fc08683611f79565b95508019841693508086168417925050509392505050565b6000819050919050565b6000611ffd611ff8611ff384611556565b611fd8565b611556565b9050919050565b6000819050919050565b61201783611fe2565b61202b61202382612004565b848454611f86565b825550505050565b600090565b612040612033565b61204b81848461200e565b505050565b5b8181101561206f57612064600082612038565b600181019050612051565b5050565b601f8211156120b45761208581611f54565b61208e84611f69565b8101602085101561209d578190505b6120b16120a985611f69565b830182612050565b50505b505050565b600082821c905092915050565b60006120d7600019846008026120b9565b1980831691505092915050565b60006120f083836120c6565b9150826002028217905092915050565b612109826114a4565b67ffffffffffffffff811115612122576121216117a1565b5b61212c8254611aa8565b612137828285612073565b600060209050601f83116001811461216a5760008415612158578287015190505b61216285826120e4565b8655506121ca565b601f19841661217886611f54565b60005b828110156121a05784890151825560018201915060208501945060208101905061217b565b868310156121bd57848901516121b9601f8916826120c6565b8355505b6001600288020188555050505b505050505050565b7f4552433732313a207472616e7366657220746f206e6f6e20455243373231526560008201527f63656976657220696d706c656d656e7465720000000000000000000000000000602082015250565b600061222e6032836114af565b9150612239826121d2565b604082019050919050565b6000602082019050818103600083015261225d81612221565b9050919050565b7f4552433732313a206d696e7420746f20746865207a65726f2061646472657373600082015250565b600061229a6020836114af565b91506122a582612264565b602082019050919050565b600060208201905081810360008301526122c98161228d565b9050919050565b7f4552433732313a20746f6b656e20616c7265616479206d696e74656400000000600082015250565b6000612306601c836114af565b9150612311826122d0565b602082019050919050565b60006020820190508181036000830152612335816122f9565b9050919050565b600081519050919050565b600082825260208201905092915050565b60006123638261233c565b61236d8185612347565b935061237d8185602086016114c0565b612386816114ea565b840191505092915050565b60006080820190506123a660008301876115eb565b6123b360208301866115eb565b6123c06040830185611701565b81810360608301526123d28184612358565b905095945050505050565b6000815190506123ec81611415565b92915050565b600060208284031215612408576124076113df565b5b6000612416848285016123dd565b9150509291505056fea2646970667358221220e4836d7a171cc28a947d99ded946dee875001b3d808661c2163c4cb9d1102c5c64736f6c63430008140033",
  "linkReferences": {},
  "deployedLinkReferences": {}
}